{
  "_format": "hh-sol-artifact-1",
  "contractName": "FyreToken",
  "fyreAddress": "0x5751Bac7df97562fadF73FA66BC76FFE65476369",
  "sourceName": "contracts/FyreToken.sol",
  "abi": [
    {
      "inputs": [
        {
          "internalType": "address",
          "name": "owner",
          "type": "address"
        },
        {
          "internalType": "uint256",
          "name": "initialSupply",
          "type": "uint256"
        }
      ],
      "stateMutability": "nonpayable",
      "type": "constructor"
    },
    {
      "inputs": [
        {
          "internalType": "address",
          "name": "spender",
          "type": "address"
        },
        {
          "internalType": "uint256",
          "name": "allowance",
          "type": "uint256"
        },
        {
          "internalType": "uint256",
          "name": "needed",
          "type": "uint256"
        }
      ],
      "name": "ERC20InsufficientAllowance",
      "type": "error"
    },
    {
      "inputs": [
        {
          "internalType": "address",
          "name": "sender",
          "type": "address"
        },
        {
          "internalType": "uint256",
          "name": "balance",
          "type": "uint256"
        },
        {
          "internalType": "uint256",
          "name": "needed",
          "type": "uint256"
        }
      ],
      "name": "ERC20InsufficientBalance",
      "type": "error"
    },
    {
      "inputs": [
        {
          "internalType": "address",
          "name": "approver",
          "type": "address"
        }
      ],
      "name": "ERC20InvalidApprover",
      "type": "error"
    },
    {
      "inputs": [
        {
          "internalType": "address",
          "name": "receiver",
          "type": "address"
        }
      ],
      "name": "ERC20InvalidReceiver",
      "type": "error"
    },
    {
      "inputs": [
        {
          "internalType": "address",
          "name": "sender",
          "type": "address"
        }
      ],
      "name": "ERC20InvalidSender",
      "type": "error"
    },
    {
      "inputs": [
        {
          "internalType": "address",
          "name": "spender",
          "type": "address"
        }
      ],
      "name": "ERC20InvalidSpender",
      "type": "error"
    },
    {
      "inputs": [
        {
          "internalType": "address",
          "name": "owner",
          "type": "address"
        }
      ],
      "name": "OwnableInvalidOwner",
      "type": "error"
    },
    {
      "inputs": [
        {
          "internalType": "address",
          "name": "account",
          "type": "address"
        }
      ],
      "name": "OwnableUnauthorizedAccount",
      "type": "error"
    },
    {
      "anonymous": false,
      "inputs": [
        {
          "indexed": true,
          "internalType": "address",
          "name": "owner",
          "type": "address"
        },
        {
          "indexed": true,
          "internalType": "address",
          "name": "spender",
          "type": "address"
        },
        {
          "indexed": false,
          "internalType": "uint256",
          "name": "value",
          "type": "uint256"
        }
      ],
      "name": "Approval",
      "type": "event"
    },
    {
      "anonymous": false,
      "inputs": [
        {
          "indexed": true,
          "internalType": "address",
          "name": "previousOwner",
          "type": "address"
        },
        {
          "indexed": true,
          "internalType": "address",
          "name": "newOwner",
          "type": "address"
        }
      ],
      "name": "OwnershipTransferred",
      "type": "event"
    },
    {
      "anonymous": false,
      "inputs": [
        {
          "indexed": true,
          "internalType": "address",
          "name": "buyer",
          "type": "address"
        },
        {
          "indexed": false,
          "internalType": "uint256",
          "name": "amount",
          "type": "uint256"
        },
        {
          "indexed": false,
          "internalType": "uint256",
          "name": "timestamp",
          "type": "uint256"
        }
      ],
      "name": "Purchase",
      "type": "event"
    },
    {
      "anonymous": false,
      "inputs": [
        {
          "indexed": true,
          "internalType": "address",
          "name": "from",
          "type": "address"
        },
        {
          "indexed": true,
          "internalType": "address",
          "name": "to",
          "type": "address"
        },
        {
          "indexed": false,
          "internalType": "uint256",
          "name": "value",
          "type": "uint256"
        }
      ],
      "name": "Transfer",
      "type": "event"
    },
    {
      "inputs": [
        {
          "internalType": "address",
          "name": "owner",
          "type": "address"
        },
        {
          "internalType": "address",
          "name": "spender",
          "type": "address"
        }
      ],
      "name": "allowance",
      "outputs": [
        {
          "internalType": "uint256",
          "name": "",
          "type": "uint256"
        }
      ],
      "stateMutability": "view",
      "type": "function"
    },
    {
      "inputs": [
        {
          "internalType": "address",
          "name": "spender",
          "type": "address"
        },
        {
          "internalType": "uint256",
          "name": "value",
          "type": "uint256"
        }
      ],
      "name": "approve",
      "outputs": [
        {
          "internalType": "bool",
          "name": "",
          "type": "bool"
        }
      ],
      "stateMutability": "nonpayable",
      "type": "function"
    },
    {
      "inputs": [
        {
          "internalType": "address",
          "name": "account",
          "type": "address"
        }
      ],
      "name": "balanceOf",
      "outputs": [
        {
          "internalType": "uint256",
          "name": "",
          "type": "uint256"
        }
      ],
      "stateMutability": "view",
      "type": "function"
    },
    {
      "inputs": [
        {
          "internalType": "address",
          "name": "account",
          "type": "address"
        },
        {
          "internalType": "uint256",
          "name": "amount",
          "type": "uint256"
        }
      ],
      "name": "burnUncollateralized",
      "outputs": [],
      "stateMutability": "nonpayable",
      "type": "function"
    },
    {
      "inputs": [
        {
          "internalType": "address",
          "name": "",
          "type": "address"
        }
      ],
      "name": "collateralizedBalance",
      "outputs": [
        {
          "internalType": "uint256",
          "name": "",
          "type": "uint256"
        }
      ],
      "stateMutability": "view",
      "type": "function"
    },
    {
      "inputs": [],
      "name": "decimals",
      "outputs": [
        {
          "internalType": "uint8",
          "name": "",
          "type": "uint8"
        }
      ],
      "stateMutability": "view",
      "type": "function"
    },
    {
      "inputs": [
        {
          "internalType": "address",
          "name": "account",
          "type": "address"
        },
        {
          "internalType": "uint256",
          "name": "amount",
          "type": "uint256"
        }
      ],
      "name": "mintUncollateralized",
      "outputs": [],
      "stateMutability": "nonpayable",
      "type": "function"
    },
    {
      "inputs": [],
      "name": "name",
      "outputs": [
        {
          "internalType": "string",
          "name": "",
          "type": "string"
        }
      ],
      "stateMutability": "view",
      "type": "function"
    },
    {
      "inputs": [],
      "name": "owner",
      "outputs": [
        {
          "internalType": "address",
          "name": "",
          "type": "address"
        }
      ],
      "stateMutability": "view",
      "type": "function"
    },
    {
      "inputs": [],
      "name": "renounceOwnership",
      "outputs": [],
      "stateMutability": "nonpayable",
      "type": "function"
    },
    {
      "inputs": [],
      "name": "symbol",
      "outputs": [
        {
          "internalType": "string",
          "name": "",
          "type": "string"
        }
      ],
      "stateMutability": "view",
      "type": "function"
    },
    {
      "inputs": [],
      "name": "totalSupply",
      "outputs": [
        {
          "internalType": "uint256",
          "name": "",
          "type": "uint256"
        }
      ],
      "stateMutability": "view",
      "type": "function"
    },
    {
      "inputs": [
        {
          "internalType": "address",
          "name": "to",
          "type": "address"
        },
        {
          "internalType": "uint256",
          "name": "value",
          "type": "uint256"
        }
      ],
      "name": "transfer",
      "outputs": [
        {
          "internalType": "bool",
          "name": "",
          "type": "bool"
        }
      ],
      "stateMutability": "nonpayable",
      "type": "function"
    },
    {
      "inputs": [
        {
          "internalType": "address",
          "name": "from",
          "type": "address"
        },
        {
          "internalType": "address",
          "name": "to",
          "type": "address"
        },
        {
          "internalType": "uint256",
          "name": "value",
          "type": "uint256"
        }
      ],
      "name": "transferFrom",
      "outputs": [
        {
          "internalType": "bool",
          "name": "",
          "type": "bool"
        }
      ],
      "stateMutability": "nonpayable",
      "type": "function"
    },
    {
      "inputs": [
        {
          "internalType": "address",
          "name": "newOwner",
          "type": "address"
        }
      ],
      "name": "transferOwnership",
      "outputs": [],
      "stateMutability": "nonpayable",
      "type": "function"
    }
  ],
  "bytecode": "0x60806040523480156200001157600080fd5b5060405162001ee738038062001ee7833981810160405281019062000037919062000711565b816040518060400160405280600a81526020017f4659524520546f6b656e000000000000000000000000000000000000000000008152506040518060400160405280600381526020017f46595200000000000000000000000000000000000000000000000000000000008152508160039081620000b59190620009c8565b508060049081620000c79190620009c8565b505050600073ffffffffffffffffffffffffffffffffffffffff168173ffffffffffffffffffffffffffffffffffffffff16036200013f5760006040517f1e4fbdf700000000000000000000000000000000000000000000000000000000815260040162000136919062000ac0565b60405180910390fd5b62000150816200017c60201b60201c565b506200016382826200024260201b60201c565b6200017482620002cf60201b60201c565b505062000bb2565b6000600560009054906101000a900473ffffffffffffffffffffffffffffffffffffffff16905081600560006101000a81548173ffffffffffffffffffffffffffffffffffffffff021916908373ffffffffffffffffffffffffffffffffffffffff1602179055508173ffffffffffffffffffffffffffffffffffffffff168173ffffffffffffffffffffffffffffffffffffffff167f8be0079c531659141344cd1fd0a4f28419497f9722a3daafe3b4186f6b6457e060405160405180910390a35050565b600073ffffffffffffffffffffffffffffffffffffffff168273ffffffffffffffffffffffffffffffffffffffff1603620002b75760006040517fec442f05000000000000000000000000000000000000000000000000000000008152600401620002ae919062000ac0565b60405180910390fd5b620002cb600083836200036860201b60201c565b5050565b620002df6200059860201b60201c565b600073ffffffffffffffffffffffffffffffffffffffff168173ffffffffffffffffffffffffffffffffffffffff1603620003545760006040517f1e4fbdf70000000000000000000000000000000000000000000000000000000081526004016200034b919062000ac0565b60405180910390fd5b62000365816200017c60201b60201c565b50565b600073ffffffffffffffffffffffffffffffffffffffff168373ffffffffffffffffffffffffffffffffffffffff1603620003be578060026000828254620003b1919062000b0c565b9250508190555062000494565b60008060008573ffffffffffffffffffffffffffffffffffffffff1673ffffffffffffffffffffffffffffffffffffffff168152602001908152602001600020549050818110156200044d578381836040517fe450d38c000000000000000000000000000000000000000000000000000000008152600401620004449392919062000b58565b60405180910390fd5b8181036000808673ffffffffffffffffffffffffffffffffffffffff1673ffffffffffffffffffffffffffffffffffffffff16815260200190815260200160002081905550505b600073ffffffffffffffffffffffffffffffffffffffff168273ffffffffffffffffffffffffffffffffffffffff1603620004df57806002600082825403925050819055506200052c565b806000808473ffffffffffffffffffffffffffffffffffffffff1673ffffffffffffffffffffffffffffffffffffffff168152602001908152602001600020600082825401925050819055505b8173ffffffffffffffffffffffffffffffffffffffff168373ffffffffffffffffffffffffffffffffffffffff167fddf252ad1be2c89b69c2b068fc378daa952ba7f163c4a11628f55a4df523b3ef836040516200058b919062000b95565b60405180910390a3505050565b620005a86200063a60201b60201c565b73ffffffffffffffffffffffffffffffffffffffff16620005ce6200064260201b60201c565b73ffffffffffffffffffffffffffffffffffffffff16146200063857620005fa6200063a60201b60201c565b6040517f118cdaa70000000000000000000000000000000000000000000000000000000081526004016200062f919062000ac0565b60405180910390fd5b565b600033905090565b6000600560009054906101000a900473ffffffffffffffffffffffffffffffffffffffff16905090565b600080fd5b600073ffffffffffffffffffffffffffffffffffffffff82169050919050565b60006200069e8262000671565b9050919050565b620006b08162000691565b8114620006bc57600080fd5b50565b600081519050620006d081620006a5565b92915050565b6000819050919050565b620006eb81620006d6565b8114620006f757600080fd5b50565b6000815190506200070b81620006e0565b92915050565b600080604083850312156200072b576200072a6200066c565b5b60006200073b85828601620006bf565b92505060206200074e85828601620006fa565b9150509250929050565b600081519050919050565b7f4e487b7100000000000000000000000000000000000000000000000000000000600052604160045260246000fd5b7f4e487b7100000000000000000000000000000000000000000000000000000000600052602260045260246000fd5b60006002820490506001821680620007da57607f821691505b602082108103620007f057620007ef62000792565b5b50919050565b60008190508160005260206000209050919050565b60006020601f8301049050919050565b600082821b905092915050565b6000600883026200085a7fffffffffffffffffffffffffffffffffffffffffffffffffffffffffffffffff826200081b565b6200086686836200081b565b95508019841693508086168417925050509392505050565b6000819050919050565b6000620008a9620008a36200089d84620006d6565b6200087e565b620006d6565b9050919050565b6000819050919050565b620008c58362000888565b620008dd620008d482620008b0565b84845462000828565b825550505050565b600090565b620008f4620008e5565b62000901818484620008ba565b505050565b5b8181101562000929576200091d600082620008ea565b60018101905062000907565b5050565b601f82111562000978576200094281620007f6565b6200094d846200080b565b810160208510156200095d578190505b620009756200096c856200080b565b83018262000906565b50505b505050565b600082821c905092915050565b60006200099d600019846008026200097d565b1980831691505092915050565b6000620009b883836200098a565b9150826002028217905092915050565b620009d38262000758565b67ffffffffffffffff811115620009ef57620009ee62000763565b5b620009fb8254620007c1565b62000a088282856200092d565b600060209050601f83116001811462000a40576000841562000a2b578287015190505b62000a378582620009aa565b86555062000aa7565b601f19841662000a5086620007f6565b60005b8281101562000a7a5784890151825560018201915060208501945060208101905062000a53565b8683101562000a9a578489015162000a96601f8916826200098a565b8355505b6001600288020188555050505b505050505050565b62000aba8162000691565b82525050565b600060208201905062000ad7600083018462000aaf565b92915050565b7f4e487b7100000000000000000000000000000000000000000000000000000000600052601160045260246000fd5b600062000b1982620006d6565b915062000b2683620006d6565b925082820190508082111562000b415762000b4062000add565b5b92915050565b62000b5281620006d6565b82525050565b600060608201905062000b6f600083018662000aaf565b62000b7e602083018562000b47565b62000b8d604083018462000b47565b949350505050565b600060208201905062000bac600083018462000b47565b92915050565b6113258062000bc26000396000f3fe608060405234801561001057600080fd5b50600436106100f55760003560e01c806370a0823111610097578063a9059cbb11610066578063a9059cbb14610262578063bcaf0ce814610292578063dd62ed3e146102c2578063f2fde38b146102f2576100f5565b806370a08231146101ec578063715018a61461021c5780638da5cb5b1461022657806395d89b4114610244576100f5565b806318160ddd116100d357806318160ddd1461016457806323b872dd14610182578063313ce567146101b257806345dfee57146101d0576100f5565b806306fdde03146100fa578063095ea7b314610118578063163b357214610148575b600080fd5b61010261030e565b60405161010f9190610f50565b60405180910390f35b610132600480360381019061012d919061100b565b6103a0565b60405161013f9190611066565b60405180910390f35b610162600480360381019061015d919061100b565b6103c3565b005b61016c610421565b6040516101799190611090565b60405180910390f35b61019c600480360381019061019791906110ab565b61042b565b6040516101a99190611066565b60405180910390f35b6101ba61045a565b6040516101c7919061111a565b60405180910390f35b6101ea60048036038101906101e5919061100b565b610463565b005b61020660048036038101906102019190611135565b610471565b6040516102139190611090565b60405180910390f35b6102246104b9565b005b61022e6104cd565b60405161023b9190611171565b60405180910390f35b61024c6104f7565b6040516102599190610f50565b60405180910390f35b61027c6004803603810190610277919061100b565b610589565b6040516102899190611066565b60405180910390f35b6102ac60048036038101906102a79190611135565b6105ac565b6040516102b99190611090565b60405180910390f35b6102dc60048036038101906102d7919061118c565b6105c4565b6040516102e99190611090565b60405180910390f35b61030c60048036038101906103079190611135565b61064b565b005b60606003805461031d906111fb565b80601f0160208091040260200160405190810160405280929190818152602001828054610349906111fb565b80156103965780601f1061036b57610100808354040283529160200191610396565b820191906000526020600020905b81548152906001019060200180831161037957829003601f168201915b5050505050905090565b6000806103ab6106d1565b90506103b88185856106d9565b600191505092915050565b6103cd82826106eb565b8173ffffffffffffffffffffffffffffffffffffffff167f12cb4648cf3058b17ceeb33e579f8b0bc269fe0843f3900b8e24b6c54871703c824260405161041592919061122c565b60405180910390a25050565b6000600254905090565b6000806104366106d1565b905061044385828561076d565b61044e858585610801565b60019150509392505050565b60006012905090565b61046d82826108f5565b5050565b60008060008373ffffffffffffffffffffffffffffffffffffffff1673ffffffffffffffffffffffffffffffffffffffff168152602001908152602001600020549050919050565b6104c1610977565b6104cb60006109fe565b565b6000600560009054906101000a900473ffffffffffffffffffffffffffffffffffffffff16905090565b606060048054610506906111fb565b80601f0160208091040260200160405190810160405280929190818152602001828054610532906111fb565b801561057f5780601f106105545761010080835404028352916020019161057f565b820191906000526020600020905b81548152906001019060200180831161056257829003601f168201915b5050505050905090565b6000806105946106d1565b90506105a1818585610801565b600191505092915050565b60066020528060005260406000206000915090505481565b6000600160008473ffffffffffffffffffffffffffffffffffffffff1673ffffffffffffffffffffffffffffffffffffffff16815260200190815260200160002060008373ffffffffffffffffffffffffffffffffffffffff1673ffffffffffffffffffffffffffffffffffffffff16815260200190815260200160002054905092915050565b610653610977565b600073ffffffffffffffffffffffffffffffffffffffff168173ffffffffffffffffffffffffffffffffffffffff16036106c55760006040517f1e4fbdf70000000000000000000000000000000000000000000000000000000081526004016106bc9190611171565b60405180910390fd5b6106ce816109fe565b50565b600033905090565b6106e68383836001610ac4565b505050565b600073ffffffffffffffffffffffffffffffffffffffff168273ffffffffffffffffffffffffffffffffffffffff160361075d5760006040517fec442f050000000000000000000000000000000000000000000000000000000081526004016107549190611171565b60405180910390fd5b61076960008383610c9b565b5050565b600061077984846105c4565b90507fffffffffffffffffffffffffffffffffffffffffffffffffffffffffffffffff81146107fb57818110156107eb578281836040517ffb8f41b20000000000000000000000000000000000000000000000000000000081526004016107e293929190611255565b60405180910390fd5b6107fa84848484036000610ac4565b5b50505050565b600073ffffffffffffffffffffffffffffffffffffffff168373ffffffffffffffffffffffffffffffffffffffff16036108735760006040517f96c6fd1e00000000000000000000000000000000000000000000000000000000815260040161086a9190611171565b60405180910390fd5b600073ffffffffffffffffffffffffffffffffffffffff168273ffffffffffffffffffffffffffffffffffffffff16036108e55760006040517fec442f050000000000000000000000000000000000000000000000000000000081526004016108dc9190611171565b60405180910390fd5b6108f0838383610c9b565b505050565b600073ffffffffffffffffffffffffffffffffffffffff168273ffffffffffffffffffffffffffffffffffffffff16036109675760006040517f96c6fd1e00000000000000000000000000000000000000000000000000000000815260040161095e9190611171565b60405180910390fd5b61097382600083610c9b565b5050565b61097f6106d1565b73ffffffffffffffffffffffffffffffffffffffff1661099d6104cd565b73ffffffffffffffffffffffffffffffffffffffff16146109fc576109c06106d1565b6040517f118cdaa70000000000000000000000000000000000000000000000000000000081526004016109f39190611171565b60405180910390fd5b565b6000600560009054906101000a900473ffffffffffffffffffffffffffffffffffffffff16905081600560006101000a81548173ffffffffffffffffffffffffffffffffffffffff021916908373ffffffffffffffffffffffffffffffffffffffff1602179055508173ffffffffffffffffffffffffffffffffffffffff168173ffffffffffffffffffffffffffffffffffffffff167f8be0079c531659141344cd1fd0a4f28419497f9722a3daafe3b4186f6b6457e060405160405180910390a35050565b600073ffffffffffffffffffffffffffffffffffffffff168473ffffffffffffffffffffffffffffffffffffffff1603610b365760006040517fe602df05000000000000000000000000000000000000000000000000000000008152600401610b2d9190611171565b60405180910390fd5b600073ffffffffffffffffffffffffffffffffffffffff168373ffffffffffffffffffffffffffffffffffffffff1603610ba85760006040517f94280d62000000000000000000000000000000000000000000000000000000008152600401610b9f9190611171565b60405180910390fd5b81600160008673ffffffffffffffffffffffffffffffffffffffff1673ffffffffffffffffffffffffffffffffffffffff16815260200190815260200160002060008573ffffffffffffffffffffffffffffffffffffffff1673ffffffffffffffffffffffffffffffffffffffff168152602001908152602001600020819055508015610c95578273ffffffffffffffffffffffffffffffffffffffff168473ffffffffffffffffffffffffffffffffffffffff167f8c5be1e5ebec7d5bd14f71427d1e84f3dd0314c0f7b2291e5b200ac8c7c3b92584604051610c8c9190611090565b60405180910390a35b50505050565b600073ffffffffffffffffffffffffffffffffffffffff168373ffffffffffffffffffffffffffffffffffffffff1603610ced578060026000828254610ce191906112bb565b92505081905550610dc0565b60008060008573ffffffffffffffffffffffffffffffffffffffff1673ffffffffffffffffffffffffffffffffffffffff16815260200190815260200160002054905081811015610d79578381836040517fe450d38c000000000000000000000000000000000000000000000000000000008152600401610d7093929190611255565b60405180910390fd5b8181036000808673ffffffffffffffffffffffffffffffffffffffff1673ffffffffffffffffffffffffffffffffffffffff16815260200190815260200160002081905550505b600073ffffffffffffffffffffffffffffffffffffffff168273ffffffffffffffffffffffffffffffffffffffff1603610e095780600260008282540392505081905550610e56565b806000808473ffffffffffffffffffffffffffffffffffffffff1673ffffffffffffffffffffffffffffffffffffffff168152602001908152602001600020600082825401925050819055505b8173ffffffffffffffffffffffffffffffffffffffff168373ffffffffffffffffffffffffffffffffffffffff167fddf252ad1be2c89b69c2b068fc378daa952ba7f163c4a11628f55a4df523b3ef83604051610eb39190611090565b60405180910390a3505050565b600081519050919050565b600082825260208201905092915050565b60005b83811015610efa578082015181840152602081019050610edf565b60008484015250505050565b6000601f19601f8301169050919050565b6000610f2282610ec0565b610f2c8185610ecb565b9350610f3c818560208601610edc565b610f4581610f06565b840191505092915050565b60006020820190508181036000830152610f6a8184610f17565b905092915050565b600080fd5b600073ffffffffffffffffffffffffffffffffffffffff82169050919050565b6000610fa282610f77565b9050919050565b610fb281610f97565b8114610fbd57600080fd5b50565b600081359050610fcf81610fa9565b92915050565b6000819050919050565b610fe881610fd5565b8114610ff357600080fd5b50565b60008135905061100581610fdf565b92915050565b6000806040838503121561102257611021610f72565b5b600061103085828601610fc0565b925050602061104185828601610ff6565b9150509250929050565b60008115159050919050565b6110608161104b565b82525050565b600060208201905061107b6000830184611057565b92915050565b61108a81610fd5565b82525050565b60006020820190506110a56000830184611081565b92915050565b6000806000606084860312156110c4576110c3610f72565b5b60006110d286828701610fc0565b93505060206110e386828701610fc0565b92505060406110f486828701610ff6565b9150509250925092565b600060ff82169050919050565b611114816110fe565b82525050565b600060208201905061112f600083018461110b565b92915050565b60006020828403121561114b5761114a610f72565b5b600061115984828501610fc0565b91505092915050565b61116b81610f97565b82525050565b60006020820190506111866000830184611162565b92915050565b600080604083850312156111a3576111a2610f72565b5b60006111b185828601610fc0565b92505060206111c285828601610fc0565b9150509250929050565b7f4e487b7100000000000000000000000000000000000000000000000000000000600052602260045260246000fd5b6000600282049050600182168061121357607f821691505b602082108103611226576112256111cc565b5b50919050565b60006040820190506112416000830185611081565b61124e6020830184611081565b9392505050565b600060608201905061126a6000830186611162565b6112776020830185611081565b6112846040830184611081565b949350505050565b7f4e487b7100000000000000000000000000000000000000000000000000000000600052601160045260246000fd5b60006112c682610fd5565b91506112d183610fd5565b92508282019050808211156112e9576112e861128c565b5b9291505056fea264697066735822122054db3974d6b8696473b622fa7ef230e0626182164e341f6533660385ca03e39764736f6c63430008140033",
  "linkReferences": {},
  "deployedLinkReferences": {}
}